:100000000C9424010C945B020C9441010C9441016A
:100010000C9441010C9441010C9441010C94410158
:100020000C9441010C9441010C9441010C94410148
:100030000C9441010C9441010C9441010C94410138
:100040000C9441010C9441010C9441010C94410128
:100050000C9441010C9441010C9441010C94410118
:100060000C9441010C944101000000000000005F6D
:1000700000000007000700147F147F14242A7F2A41
:10008000122313086462364955225000050300000C
:10009000001C2241000041221C0014083E081408E4
:1000A000083E0808005030000008080808080060F2
:1000B00060000020100804023E5149453E00427F86
:1000C000400042615149462141454B311814127F8D
:1000D0001027454545393C4A494930017109050316
:1000E0003649494936064949291E0036360000007E
:1000F0005636000008142241001414141414004150
:100100002214080201510906324979413E7E11113B
:10011000117E7F494949363E414141227F4141227A
:100120001C7F494949417F090909013E4149497AF2
:100130007F0808087F00417F41002040413F017F48
:10014000081422417F404040407F020C027F7F0420
:1001500008107F3E4141413E7F090909063E415159
:10016000215E7F09192946464949493101017F012C
:10017000013F4040403F1F2040201F3F4038403F4C
:100180006314081463070870080761514945430068
:100190007F41410002040810200041417F00040219
:1001A0000102044040404040000102040020545439
:1001B00054787F48444438384444442038444448C0
:1001C0007F3854545418087E0901020C5252523E92
:1001D0007F0804047800447D40002040443D007FB7
:1001E0001028440000417F40007C041804787C08FB
:1001F00004047838444444387C1414140808141453
:10020000187C7C080404084854545420043F44409B
:10021000203C4040207C1C2040201C3C4030403C86
:1002200044281028440C5050503C4464544C440022
:100230000836410000007F00000041360800100829
:10024000081008000000000011241FBECFEFD8E006
:10025000DEBFCDBF11E0A0E0B1E0E8EDF6E102C005
:1002600005900D92AC36B107D9F724E0ACE6B1E0C9
:1002700001C01D92A834B207E1F70E94CD020C9490
:100280006A0B0C940000FC012785308983859485D6
:10029000822B932B25853685822B932B21893289BE
:1002A000822B932B21853285822B932B27813085BE
:1002B000822B932B25813681822B932B21813281B6
:1002C000822B932B23813481822B932B08951F93B0
:1002D000CF93DF93162FEA01880F0E944302812FEC
:1002E0000E943C028D2F0E943C028C2F0E943C02F7
:1002F000DF91CF911F910C943402CF93DF93C82FDD
:10030000D62F880F0E9443028D2F0E943C020E942C
:1003100034028C2F880F81600E9443020E944B029E
:10032000C82FD0E0DC2FCC270E945302C82B0E949C
:100330003402CE01DF91CF910895FF920F931F9366
:10034000CF93DF93EC01F62E8A010E9423020E94D4
:10035000CA051A821982F882188A1F861C861B8693
:100360001E861D8683E090E09A8B898B80E091E069
:100370009A87898718870F8380E094E09E838D8316
:100380001C821B82DF91CF911F910F91FF900895E6
:1003900060E0FC0180810C947D01CF93DF93EC0140
:1003A00088E090E09E878D87188A1F861A8A198AAE
:1003B0001A86198680E090E89A838983611105C0C6
:1003C00082E08093690081E006C0613029F488E012
:1003D0008093690082E08DBB4FEF5FE762E0888128
:1003E0000E94670140E050E863E088810E94670155
:1003F000CE010E944301AC0161E08881DF91CF9181
:100400000C946701CF93DF93EC017C836B830E9494
:100410004301AC0161E08881DF91CF910C946701C9
:10042000CF93DF93EC017E836D830E944301AC0187
:1004300061E08881DF91CF910C9467018091BC00CD
:1004400087FFFCCF0895E9EBF0E080818E7F808309
:1004500080818D7F808380E28093B800089584EA54
:100460008093BC000C941E0284E98093BC008091B0
:10047000BC0084FDFCCF08958093BB0084E880938A
:10048000BC000C941E02CF93C82F0E942F028C2F09
:10049000CF910C943C0284EC8093BC000E941E021D
:1004A0008091BB00089584E88093BC000E941E02E6
:1004B0008091BB0008951F920F920FB60F921124E6
:1004C000CF92DF92EF92FF920F931F932F933F9360
:1004D0004F935F936F937F938F939F93AF93BF934C
:1004E000EF93FF9389E392E00E94C8018C01909101
:1004F0003402E92FF0E0EE0FFF1FE459FE4FC080F9
:10050000D1800D2C000CEE08FF084091350250916F
:10051000360260913702709138024C195D096E09FC
:100520007F0911830083012E000C220B330B040F73
:10053000151F261F371F0093350210933602209394
:1005400037023093380281E0890F64E60E94240765
:1005500090933402C901B80124E630E040E050E055
:100560000E94300730934D0220934C02FF91EF918F
:10057000BF91AF919F918F917F916F915F914F91BB
:100580003F912F911F910F91FF90EF90DF90CF90AF
:100590000F900FBE0F901F901895CF93DF9300D050
:1005A00000D0CDB7DEB71C821B821A8219820E944E
:1005B000A7030E94E50440E850E068E489E392E084
:1005C0000E949D0160E089E392E00E94CD01789451
:1005D000EE24EA940E9470030E94D105F82EE816DA
:1005E000B9F182E0F816A9F083E0F81609F181E08C
:1005F000F8122DC060E07AE089E392E00E941002D8
:1006000060E070E189E392E00E940202EE24E3944C
:100610001FC060E074E089E392E00E94100260E095
:1006200070E189E392E00E94020292E0E92E10C09C
:1006300060E074E089E392E00E94100260E070E202
:1006400089E392E00E94020283E0E82E01C0EF2CD1
:1006500080914C0290914D028E010F5F1F4F9E01C1
:100660002D5F3F4F41E06F2D0E94DF050E94040582
:10067000813059F48F2D0E941C0569817A8121E017
:100680004F2D8B819C810E942F058F2D0E94CE04BF
:1006900069817A8121E04F2D8B819C810E943804F1
:1006A0000E94920397CF5E9828E030E090E8482FB0
:1006B000492311F05C9A01C05C985B9A48EB4A951B
:1006C000F1F700005B9848EB4A95F1F7000096952A
:1006D0002150310961F75E9A08955D980C94530397
:1006E0001092470410924604EEE4F2E0119284E086
:1006F000E634F807D9F70895962F9695969596952E
:10070000E82FF0E084E5989FE00DF11D1124E25BF5
:10071000FD4F677001C0440F6A95EAF78081482B4E
:1007200040830895CF93DF9380E80E946D0380E4B7
:100730000E946D03CEE4D2E089915D9A0E9453033A
:1007400084E0C634D807C1F7DF91CF910895549A59
:10075000569A539A559A579A5F9A5E9A8CEC9AE0F9
:100760000197F1F700C000005F9895E29A95F1F7C4
:100770005F9A81E20E946D0380E80E946D0384E02D
:100780000E946D0384E10E946D0380E20E946D036C
:100790008CE00E946D030E9470030C949203BF9240
:1007A000CF92DF92EF92FF920F931F93CF93DF933D
:1007B00095E0899F70011124C12CD12CBC2C87019C
:1007C0000C0D1D1D08531040C0E0D0E0F80124912D
:1007D00030E00C2E02C0359527950A94E2F760911F
:1007E00047048091460420FF03C06C0F41E002C023
:1007F0006C0F40E08B0D0E947C032196C830D10520
:1008000029F7EFEFCE1ADE0AF5E0CF16D104B1F6E4
:1008100080914604282F30E02035310524F48B5F89
:10082000809346040FC01092460480914704282FFD
:1008300030E02A32310524F4895F8093470402C0F6
:1008400010924704DF91CF911F910F91FF90EF908D
:10085000DF90CF90BF900895CF93DF93EC01899103
:10086000882319F00E94CF03FACFDF91CF9108952A
:100870000F931F93CF93DF93CDB7DEB72A970FB6B1
:10088000F894DEBF0FBECDBF413051F4FC0197FF9D
:1008900003C0F195E195F109E83CF10504F115C0BB
:1008A000423049F4FC0197FF03C0F195E195F1094D
:1008B00032975CF414C0433091F4FC0197FF03C0FD
:1008C000F195E195F109749754F087E2809346041D
:1008D00084E18093470481E30E94CF0354C03BE14D
:1008E0003093460434E1309347048E010F5F1F4F6D
:1008F000423001F14330F1F0413009F041C0213084
:1009000039F47F936F939F938F9380E091E01AC0A7
:10091000223039F47F936F939F938F9389E091E016
:1009200011C0233069F57F936F939F938F9384E178
:1009300091E008C0213091F47F936F939F938F9340
:100940008FE191E09F938F931F930F930E94B708BD
:100950000FB6F894DEBF0FBECDBF12C0223039F4FF
:100960007F936F939F938F9389E291E0EBCF233036
:1009700039F47F936F939F938F9383E391E0E2CF5A
:10098000C8010E942C042A960FB6F894DEBF0FBE51
:10099000CDBFDF91CF911F910F9108959CE090936F
:1009A000460499E290934704813019F48DE391E075
:1009B00009C0823019F48BE491E004C0833021F443
:1009C00086E591E00C942C0408951092C50087E40C
:1009D0008093C400E0ECF0E080818D7F8083E1ECC7
:1009E000F0E0808188608083E2ECF0E080818F73AA
:1009F000808380818F7C80838081877F80838081DA
:100A0000897F80835298089589B182FB882780F975
:100A100008959091C00095FFFCCF8093C600089583
:100A2000CF93DF93EC018991882319F00E94090587
:100A3000FACFDF91CF910895813019F48DE391E0E1
:100A400009C0823019F48BE491E004C0833021F4B2
:100A500086E591E00E9410058DE50C940905CF9381
:100A6000DF93CDB7DEB72A970FB6F894DEBF0FBE7F
:100A7000CDBF413051F4AC0197FF03C05195419572
:100A80005109483C5105F4F019C0423051F4AC0111
:100A900097FF03C05195419551094230510574F4B7
:100AA00034C0433009F066C0AC0197FF03C05195D4
:100AB00041955109443151050CF44FC081E30E9426
:100AC00009055CC0AE014F5F5F4F213039F47F9361
:100AD0006F939F938F9380E091E012C0223039F49E
:100AE0007F936F939F938F9389E091E009C02330A8
:100AF00009F040C07F936F939F938F9384E191E0BF
:100B00009F938F935F934F930EC02130A1F47F93F7
:100B10006F939F938F938FE191E09F938F93CE017B
:100B200001969F938F930E94B7080FB6F894DEBF8B
:100B30000FBECDBF1FC0223039F47F936F939F93B8
:100B40008F9389E291E0E9CF2330A1F47F936F93F3
:100B50009F938F9383E391E0E0CF213039F47F932B
:100B60006F939F938F9382E691E0D7CF223079F2F3
:100B7000233019F3CE0101960E9410058BE50E94E7
:100B800009052A960FB6F894DEBF0FBECDBFDF91E0
:100B9000CF9108952498239822982C9A2B9A2A9AD8
:100BA00008951C9B06C01B9B06C01A9B06C08FEFB6
:100BB000089581E0089582E0089583E008952F92DA
:100BC0003F924F925F926F927F928F929F92AF92DD
:100BD000BF92CF92DF92EF92FF920F931F93CF932A
:100BE000DF9300D000D01F92CDB7DEB7DC01498380
:100BF0003B832A831D830C83613009F070C09B2FD7
:100C0000990F990BFDE2AF2E11E3B12ECC24C394C2
:100C1000D12CE12CF12C00E010E09D01492F592F3F
:100C2000692F792F892F0E94560719012A013B014C
:100C30004C0180E8A82E96E9B92E28E9C22E910130
:100C4000A201B301C4010E94B107EA81FB812083A4
:100C50003183F981F13089F4F0E4AF2EA2E4BA2EA9
:100C6000BFE0CB2E9101A201B301C4010E94B107E4
:100C7000EAE0AE2EB12CC12C2BC0F981F230A1F4E8
:100C800020E1A22E37E2B32EC12CD12CE12CF12C85
:100C900000E010E09101A201B301C4010E94B1077C
:100CA000E4E6AE2EB12C14C0F981F33009F0A7C0F0
:100CB00088EEA82E93E0B92EC12CD12CE12CF12C7A
:100CC00000E010E09101A201B301C4010E94B1074C
:100CD0000E94AF07EC81FD812083318390C0623098
:100CE00009F03FC021E732E00E944F072B013C0191
:100CF00020E836E948E950E00E943007EA81FB81AC
:100D000031832083F981F13039F4C301B20120E14C
:100D100037E240E050E065C0F981F23079F4C30178
:100D2000B20128EE33E040E050E00E943007CA01F3
:100D3000B90120E137E240E050E05BC0F981F330D7
:100D400009F05DC0C301B20124E630E040E050E0AC
:100D50000E943007CA01B90120EA36E841E050E0BC
:100D600048C0633009F04BC021E732E00E944F07D2
:100D70002B013C0120E432E44FE050E00E943007B8
:100D8000EA81FB8131832083F981F13079F4C30159
:100D9000B20120E137E240E050E00E943007CA0192
:100DA000B9012AE030E040E050E023C0F981F230A0
:100DB00079F4C301B20128EE33E040E050E00E9434
:100DC0003007CA01B90124E630E040E050E011C02C
:100DD000F981F330A1F4C301B20124E630E040E030
:100DE00050E00E943007CA01B90128EE33E040E02C
:100DF00050E00E943007EC81FD8171836083EC81BB
:100E0000FD818081918197FF03C091958195910922
:100E1000EC81FD81918380830F900F900F900F9054
:100E20000F90DF91CF911F910F91FF90EF90DF9086
:100E3000CF90BF90AF909F908F907F906F905F907A
:100E40004F903F902F900895991B79E004C0991F0F
:100E5000961708F0961B881F7A95C9F78095089514
:100E6000052E97FB1EF400940E94470757FD07D0FC
:100E70000E94860807FC03D04EF40C944707509557
:100E80004095309521953F4F4F4F5F4F0895909576
:100E90008095709561957F4F8F4F9F4F08950E9469
:100EA000A808B7FF0895821B930B0895DF93CF9393
:100EB0001F930F939A9DF02D219FF00D8B9DF00DA8
:100EC0008A9DE02DF10D039FF00D029FE00DF11DB5
:100ED0004E9DE00DF11D5E9DF00D4F9DF00D7F9339
:100EE0006F93BF92AF925F934F93D5010E94A80872
:100EF0008B01AC01D7010E94A808EB01E80FF91F94
:100F0000D6010E94A6072F913F91D6010E94A80802
:100F1000C60FD71FE81FF91FAF91BF910E94A60708
:100F20002F913F910E94A808C60FD71FE81FF91FF5
:100F3000D6010E94A808E60FF71F9801BE01CF0155
:100F400011240F911F91CF91DF9108950E94A8085D
:100F5000460F571FC81FD91F08F43196089568948B
:100F600001C0E894F92FF12B12F00C94E307A0E0F4
:100F7000B0E0EDEBF7E00C945508092E059422F44F
:100F80000E943F08112392F4F0E80F26FFEFE0944F
:100F9000F09400951095B094C094D094A194BF0A99
:100FA000CF0ADF0AEF0AFF0A0F0B1F0B0E94EE07A2
:100FB00007FC0E943F08CDB7DEB7ECE00C94710847
:100FC000689401C0E8948F929F92CF93DF930E9420
:100FD000EE07DF91CF919F908F90089588249924F8
:100FE000F401E401B0E49F93AA279A158B049C04B2
:100FF000ED05FE05CF05D007A10798F4AD2FDC2F36
:10100000CF2FFE2FE92D982C892E982F872F762F02
:10101000652F542F432F322F2227B85031F7BF911D
:1010200027C01B2EBF91BB27220F331F441F551F04
:10103000661F771F881F991F881C991CEE1FFF1FB2
:10104000CC1FDD1FAA1FBB1F8A149B04EC05FD05E6
:10105000CE05DF05A007B10748F08A189B08EC0908
:10106000FD09CE09DF09A00BB10B21601A94E1F64E
:101070002EF49401AF01BE01CD01000C08956095DE
:1010800070958095909530954095509521953F4F5E
:101090004F4F5F4F6F4F7F4F8F4F9F4F08952F924E
:1010A0003F924F925F926F927F928F929F92AF92F8
:1010B000BF92CF92DF92EF92FF920F931F93CF9345
:1010C000DF93CDB7DEB7CA1BDB0B0FB6F894DEBFDC
:1010D0000FBECDBF09942A88398848885F846E8402
:1010E0007D848C849B84AA84B984C884DF80EE804C
:1010F000FD800C811B81AA81B981CE0FD11D0FB655
:10110000F894DEBF0FBECDBFED010895A1E21A2E07
:10111000AA1BBB1BFD010DC0AA1FBB1FEE1FFF1F9B
:10112000A217B307E407F50720F0A21BB30BE40BEB
:10113000F50B661F771F881F991F1A9469F7609532
:101140007095809590959B01AC01BD01CF010895EC
:10115000A29FB001B39FC001A39F700D811D1124F8
:10116000911DB29F700D811D1124911D0895AEE057
:10117000B0E0EDEBF8E00C945D080D891E8986E087
:101180008C831A8309838FEF9FE79E838D83AE0143
:10119000475E5F4F6F89788DCE0101960E94D90816
:1011A000EF81F885E00FF11F10822E96E4E00C9499
:1011B0007908ABE0B0E0EFEDF8E00C944F086C017B
:1011C0007B018A01FC0117821682838181FFCCC1D9
:1011D000CE0101963C01F6019381F70193FD8591C3
:1011E00093FF81917F01882309F4BAC1853239F4D4
:1011F00093FD859193FF81917F01853229F4B6019A
:1012000090E00E94D00AE7CF912C212C312CFFE1F5
:10121000F315D8F08B3279F038F4803279F08332DC
:10122000A1F4232D20611DC08D3261F0803369F45B
:10123000232D216016C0832D8260382EE32DE460BB
:101240003E2E2AC0F32DF8601DC037FC2DC020EDC6
:10125000280F2A3040F08E32B9F436FC81C1232D9C
:101260002064322E19C036FE06C08AE0989E200DFA
:101270001124922E11C0EAE02E9E200D1124222E60
:10128000F32DF0623F2E08C08C3621F4832D806848
:10129000382E02C0883641F4F70193FD859193FF03
:1012A00081917F018111B3CF982F9F7D9554933009
:1012B00028F40C5F1F4F9FE399830DC0833631F0F4
:1012C000833771F0833509F059C021C0F80180815E
:1012D00089830E5F1F4F88248394912C530113C080
:1012E0002801F2E04F0E511CF801A080B18036FEBB
:1012F00003C0692D70E002C06FEF7FEFC5010E944F
:10130000C50A4C018201F32DFF773F2E16C028013C
:1013100022E0420E511CF801A080B18036FE03C0CD
:10132000692D70E002C06FEF7FEFC5010E94BA0A1D
:101330004C01F32DF0683F2E820133FC1BC0822D3F
:1013400090E088169906B0F4B60180E290E00E9421
:10135000D00A2A94F4CFF50137FC859137FE8191AC
:101360005F01B60190E00E94D00A21102A9421E08A
:10137000821A91088114910471F7E8C0843611F043
:10138000893641F5F80137FE07C06081718182819D
:1013900093810C5F1F4F08C060817181072E000C84
:1013A000880B990B0E5F1F4FF32DFF763F2E97FF93
:1013B00009C090958095709561957F4F8F4F9F4F95
:1013C000F0683F2E2AE030E0A3010E940C0B882E2B
:1013D000861845C0853731F4232D2F7EB22E2AE0A2
:1013E00030E025C0932D997FB92E8F36C1F018F4C7
:1013F000883579F0B5C0803719F0883721F0B0C052
:10140000E92FE061BE2EB4FE0DC0FB2DF460BF2EAF
:1014100009C034FE0AC0292F2660B22E06C028E07B
:1014200030E005C020E130E002C020E132E0F80108
:10143000B7FE07C060817181828193810C5F1F4F6D
:1014400006C06081718180E090E00E5F1F4FA301B4
:101450000E940C0B882E8618FB2DFF773F2E36FE40
:101460000DC0232D2E7FA22E891458F434FE0BC0FC
:1014700032FC09C0832D8E7EA82E05C0B82CA32C6B
:1014800003C0B82C01C0B92CA4FE0FC0FE01E80DAA
:10149000F11D8081803321F49A2D997EA92E09C0F7
:1014A000A2FE06C0B394B39404C08A2D867809F0D6
:1014B000B394A3FC11C0A0FE06C0B21488F4280C9B
:1014C000922C9B180EC0B21460F4B60180E290E03A
:1014D0000E94D00AB394F7CFB21418F42B1802C0AC
:1014E000982C212CA4FE10C0B60180E390E00E944D
:1014F000D00AA2FE17C0A1FC03C088E790E002C09A
:1015000088E590E0B6010CC08A2D867859F0A1FEDE
:1015100002C08BE201C080E2A7FC8DE2B60190E040
:101520000E94D00A891438F4B60180E390E00E944A
:10153000D00A9A94F7CF8A94F301E80DF11D8081C7
:10154000B60190E00E94D00A8110F5CF222009F464
:1015500042CEB60180E290E00E94D00A2A94F6CFF3
:10156000F6018681978102C08FEF9FEF2B96E2E113
:101570000C946B08FC010590615070400110D8F785
:10158000809590958E0F9F1F0895FC0161507040CB
:1015900001900110D8F7809590958E0F9F1F0895A8
:1015A0000F931F93CF93DF93FB01238121FD03C092
:1015B0008FEF9FEF2CC022FF16C0468157812481F8
:1015C00035814217530744F4A081B1819D012F5FFB
:1015D0003F4F318320838C93268137812F5F3F4F8C
:1015E0003783268314C08B01EC01FB010084F18555
:1015F000E02D0995892BE1F6D80116968D919C91E5
:101600001797019617969C938E931697CE01DF91AC
:10161000CF911F910F910895FA01AA27283051F117
:10162000203181F1E8946F936E7F6E5F7F4F8F4F13
:101630009F4FAF4FB1E03ED0B4E03CD0670F781F72
:10164000891F9A1FA11D680F791F8A1F911DA11D57
:101650006A0F711D811D911DA11D20D009F4689490
:101660003F912AE0269F11243019305D3193DEF638
:10167000CF010895462F4770405D4193B3E00FD0EE
:10168000C9F7F6CF462F4F70405D4A3318F0495DD9
:1016900031FD4052419302D0A9F7EACFB4E0A695BC
:1016A0009795879577956795BA95C9F700976105DE
:1016B000710508959B01AC010A2E06945795479534
:1016C00037952795BA95C9F7620F731F841F951F29
:0816D000A01D0895F894FFCF5E
:1016D80025642C2564206D560025642C2530326441
:1016E800206D560025642C25303364206D56002566
:1016F800642C2530336420560025642C253034644E
:1017080020560025642C253035642056005A616B1C
:1017180072657320323030206D56005A616B7265E5
:101728007320322056005A616B7265732032302064
:0C173800560025642C2530326420560039
:00000001FF
