S0150000776F6C746F6D6965727A5F64632E737265638D
S11300000C9424010C9444020C9441010C9441017D
S11300100C9441010C9441010C9441010C94410154
S11300200C9441010C9441010C9441010C94410144
S11300300C9441010C9441010C9441010C94410134
S11300400C9441010C9441010C9441010C94410124
S11300500C9441010C9441010C9441010C94410114
S11300600C9441010C944101000000000000005F69
S113007000000007000700147F147F14242A7F2A3D
S11300801223130864623649552250000503000008
S1130090001C2241000041221C0014083E081408E0
S11300A0083E0808005030000008080808080060EE
S11300B060000020100804023E5149453E00427F82
S11300C0400042615149462141454B311814127F89
S11300D01027454545393C4A494930017109050312
S11300E03649494936064949291E0036360000007A
S11300F0563600000814224100141414141400414C
S11301002214080201510906324979413E7E111137
S1130110117E7F494949363E414141227F41412276
S11301201C7F494949417F090909013E4149497AEE
S11301307F0808087F00417F41002040413F017F44
S1130140081422417F404040407F020C027F7F041C
S113015008107F3E4141413E7F090909063E415155
S1130160215E7F09192946464949493101017F0128
S1130170013F4040403F1F2040201F3F4038403F48
S11301806314081463070870080761514945430064
S11301907F41410002040810200041417F00040215
S11301A00102044040404040000102040020545435
S11301B054787F48444438384444442038444448BC
S11301C07F3854545418087E0901020C5252523E8E
S11301D07F0804047800447D40002040443D007FB3
S11301E01028440000417F40007C041804787C08F7
S11301F004047838444444387C141414080814144F
S1130200187C7C080404084854545420043F444097
S1130210203C4040207C1C2040201C3C4030403C82
S113022044281028440C5050503C4464544C44001E
S11302300836410000007F00000041360800100825
S1130240081008000000000011241FBECFEFD8E002
S1130250DEBFCDBF11E0A0E0B1E0E8EAF6E102C004
S113026005900D92AC36B107D9F724E0ACE6B1E0C5
S113027001C01D92A334B207E1F70E94B6020C94A8
S1130280520B0C940000FC012085318585819681F8
S1130290822B932B20813181822B932B23813481D8
S11302A0822B932B2781822B34852285232B338524
S11302B0232B3585232B822B08951F93CF93DF9314
S11302C0162FEA01880F0E942C02812F0E9425021A
S11302D08D2F0E9425028C2F0E942502DF91CF9141
S11302E01F910C941D02CF93DF93C82FD62F880F34
S11302F00E942C028D2F0E9425020E941D028C2F29
S1130300880F81600E942C020E943402C82FD0E022
S1130310DC2FCC270E943C02C82B0E941D02CE0178
S1130320DF91CF9108950F931F93CF93DF93EC0147
S1130330062F142F0E940C020E94B2051982188203
S11303400A831C861A861B8683E08D8780E091E0F1
S1130350998788871F8380E094E09E838D831C8225
S11303601B82DF91CF911F910F91089560E0FC01F2
S113037082810C947301CF93DF93EC0188E08B8727
S11303801C861D861986188620E030E83983288368
S1130390611105C082E08093690081E005C061308D
S11303A021F48093690082E08DBB4FEF5FE762E048
S11303B08A810E945D0140E050E863E08A810E94E6
S11303C05D01CE010E944301AC0161E08A81DF91AD
S11303D0CF910C945D01CF93DF93EC017C836B830D
S11303E00E944301AC0161E08A81DF91CF910C94BA
S11303F05D01CF93DF93EC017E836D830E94430103
S1130400AC0161E08A81DF91CF910C945D01809110
S1130410BC0087FFFCCF0895E9EBF0E080818E7F7C
S1130420808380818D7F808380E28093B8000895EB
S113043084EA8093BC000C94070284E98093BC0096
S11304408091BC0084FDFCCF08958093BB0084E8B8
S11304508093BC000C940702CF93C82F0E9418020B
S11304608C2FCF910C94250284EC8093BC000E94C5
S113047007028091BB00089584E88093BC000E9429
S113048007028091BB0008951F920F920FB60F923E
S11304901124CF92DF92EF92FF920F931F932F9329
S11304A03F934F935F936F937F938F939F93AF93F8
S11304B0BF93EF93FF9389E392E00E94B6018C010E
S11304C090913402E92FF0E0EE0FFF1FE459FE4F44
S11304D0C080D1800D2C000CEE08FF08409135023D
S11304E05091360260913702709138024C195D09BF
S11304F06E097F0911830083012E000C220B330B3C
S1130500040F151F261F371F009335021093360260
S1130510209337023093380281E0890F64E60E9409
S11305200C0790933402C901B80124E630E040E09E
S113053050E00E9418073093480220934702FF912D
S1130540EF91BF91AF919F918F917F916F915F9147
S11305504F913F912F911F910F91FF90EF90DF905A
S1130560CF900F900FBE0F901F901895CF93DF93ED
S113057000D000D0CDB7DEB71C821B821A8219824C
S11305800E948F030E94CD0440E868E489E392E06E
S11305900E94930160E089E392E00E94BB01789499
S11305A0EE24EA940E9458030E94B905F82EE81636
S11305B0B9F182E0F816A9F083E0F81609F181E0B8
S11305C0F8122DC060E07AE089E392E00E94F9011C
S11305D060E070E189E392E00E94EB01EE24E39491
S11305E01FC060E074E089E392E00E94F90160E0DA
S11305F070E189E392E00E94EB0192E0E92E10C0E1
S113060060E074E089E392E00E94F90160E070E246
S113061089E392E00E94EB0183E0E82E01C0EF2C15
S113062080914702909148028E010F5F1F4F9E01F7
S11306302D5F3F4F41E06F2D0E94C7050E94EC04DF
S1130640813059F48F2D0E94040569817A8121E05B
S11306504F2D8B819C810E9417058F2D0E94B6041B
S113066069817A8121E04F2D8B819C810E94200435
S11306700E947A0397CF5E9828E030E090E8482FF4
S1130680492311F05C9A01C05C985B9A48EB4A9547
S1130690F1F700005B9848EB4A95F1F70000969556
S11306A02150310961F75E9A08955D980C943B03DB
S11306B01092420410924104E9E4F2E0119284E0C1
S11306C0E134F807D9F70895962F9695969596955F
S11306D0E82FF0E084E5989FE00DF11D1124E75B1D
S11306E0FD4F677001C0440F6A95EAF78081482B7B
S11306F040830895CF93DF9380E80E94550380E4FC
S11307000E945503C9E4D2E089915D9A0E943B039B
S113071084E0C134D807C1F7DF91CF910895549A8A
S1130720569A539A559A579A5F9A5E9A8CEC9AE025
S11307300197F1F700C000005F9895E29A95F1F7F0
S11307405F9A81E20E94550380E80E94550384E089
S11307500E94550384E10E94550380E20E945503E0
S11307608CE00E9455030E9458030C947A03BF92B4
S1130770CF92DF92EF92FF920F931F93CF93DF9369
S113078095E0899F70011124C12CD12CBC2C8701C8
S11307900C0D1D1D08531040C0E0D0E0F801249159
S11307A030E00C2E02C0359527950A94E2F760914B
S11307B042048091410420FF03C06C0F41E002C059
S11307C06C0F40E08B0D0E9464032196C830D10564
S11307D029F7EFEFCE1ADE0AF5E0CF16D104B1F611
S11307E080914104282F30E02035310524F48B5FBB
S11307F0809341040FC01092410480914204282F39
S113080030E02A32310524F4895F8093420402C027
S113081010924204DF91CF911F910F91FF90EF90BE
S1130820DF90CF90BF900895CF93DF93EC0189912F
S1130830882319F00E94B703FACFDF91CF9108956E
S11308400F931F93CF93DF93CDB7DEB72A970FB6DD
S1130850F894DEBF0FBECDBF413051F4FC0197FFC9
S113086003C0F195E195F109E83CF10504F115C0E7
S1130870423049F4FC0197FF03C0F195E195F10979
S113088032975CF414C0433091F4FC0197FF03C029
S1130890F195E195F109749754F087E2809341044E
S11308A084E18093420481E30E94B70354C03BE196
S11308B03093410434E1309342048E010F5F1F4FA3
S11308C0423001F14330F1F0413009F041C02130B0
S11308D039F47F936F939F938F9380E091E01AC0D4
S11308E0223039F47F936F939F938F9389E091E043
S11308F011C0233069F57F936F939F938F9384E1A5
S113090091E008C0213091F47F936F939F938F936C
S11309108FE191E09F938F931F930F930E949F0801
S11309200FB6F894DEBF0FBECDBF12C0223039F42B
S11309307F936F939F938F9389E291E0EBCF233062
S113094039F47F936F939F938F9383E391E0E2CF86
S1130950C8010E9414042A960FB6F894DEBF0FBE95
S1130960CDBFDF91CF911F910F9108959CE090939B
S1130970410499E290934204813019F48DE391E0AB
S113098009C0823019F48BE491E004C0833021F46F
S113099086E591E00C94140408951092C50087E450
S11309A08093C400E0ECF0E080818D7F8083E1ECF3
S11309B0F0E0808188608083E2ECF0E080818F73D6
S11309C0808380818F7C80838081877F8083808106
S11309D0897F80835298089589B182FB882780F9A2
S11309E008959091C00095FFFCCF8093C6000895B0
S11309F0CF93DF93EC018991882319F00E94F104CD
S1130A00FACFDF91CF910895813019F48DE391E00D
S1130A1009C0823019F48BE491E004C0833021F4DE
S1130A2086E591E00E94F8048DE50C94F104CF93DF
S1130A30DF93CDB7DEB72A970FB6F894DEBF0FBEAB
S1130A40CDBF413051F4AC0197FF03C0519541959E
S1130A505109483C5105F4F019C0423051F4AC013D
S1130A6097FF03C05195419551094230510574F4E3
S1130A7034C0433009F066C0AC0197FF03C0519500
S1130A8041955109443151050CF44FC081E30E9452
S1130A90F1045CC0AE014F5F5F4F213039F47F93A6
S1130AA06F939F938F9380E091E012C0223039F4CA
S1130AB07F936F939F938F9389E091E009C02330D4
S1130AC009F040C07F936F939F938F9384E191E0EB
S1130AD09F938F935F934F930EC02130A1F47F9324
S1130AE06F939F938F938FE191E09F938F93CE01A8
S1130AF001969F938F930E949F080FB6F894DEBFD0
S1130B000FBECDBF1FC0223039F47F936F939F93E4
S1130B108F9389E291E0E9CF2330A1F47F936F931F
S1130B209F938F9383E391E0E0CF213039F47F9357
S1130B306F939F938F9382E691E0D7CF223079F21F
S1130B40233019F3CE0101960E94F8048BE50E942C
S1130B50F1042A960FB6F894DEBF0FBECDBFDF9125
S1130B60CF9108952498239822982C9A2B9A2A9A04
S1130B7008951C9B06C01B9B06C01A9B06C08FEFE2
S1130B80089581E0089582E0089583E008952F9206
S1130B903F924F925F926F927F928F929F92AF9209
S1130BA0BF92CF92DF92EF92FF920F931F93CF9356
S1130BB0DF9300D000D01F92CDB7DEB7DC014983AC
S1130BC03B832A831D830C83613009F070C09B2F03
S1130BD0990F990BFDE2AF2E11E3B12ECC24C394EF
S1130BE0D12CE12CF12C00E010E09D01492F592F6C
S1130BF0692F792F892F0E943E0719012A013B0191
S1130C004C0180E8A82E96E9B92E28E9C22E91015C
S1130C10A201B301C4010E949907EA81FB812083E8
S1130C203183F981F13089F4F0E4AF2EA2E4BA2ED5
S1130C30BFE0CB2E9101A201B301C4010E94990728
S1130C40EAE0AE2EB12CC12C2BC0F981F230A1F414
S1130C5020E1A22E37E2B32EC12CD12CE12CF12CB1
S1130C6000E010E09101A201B301C4010E949907C0
S1130C70E4E6AE2EB12C14C0F981F33009F0A7C01C
S1130C8088EEA82E93E0B92EC12CD12CE12CF12CA6
S1130C9000E010E09101A201B301C4010E94990790
S1130CA00E949707EC81FD812083318390C06230DC
S1130CB009F03FC021E732E00E9437072B013C01D5
S1130CC020E836E948E950E00E941807EA81FB81F0
S1130CD031832083F981F13039F4C301B20120E179
S1130CE037E240E050E065C0F981F23079F4C301A5
S1130CF0B20128EE33E040E050E00E941807CA0138
S1130D00B90120E137E240E050E05BC0F981F33003
S1130D1009F05DC0C301B20124E630E040E050E0D8
S1130D200E941807CA01B90120EA36E841E050E000
S1130D3048C0633009F04BC021E732E00E94370716
S1130D402B013C0120E432E44FE050E00E941807FC
S1130D50EA81FB8131832083F981F13079F4C30185
S1130D60B20120E137E240E050E00E941807CA01D6
S1130D70B9012AE030E040E050E023C0F981F230CC
S1130D8079F4C301B20128EE33E040E050E00E9460
S1130D901807CA01B90124E630E040E050E011C070
S1130DA0F981F330A1F4C301B20124E630E040E05C
S1130DB050E00E941807CA01B90128EE33E040E070
S1130DC050E00E941807EC81FD8171836083EC81FF
S1130DD0FD818081918197FF03C09195819591094F
S1130DE0EC81FD81918380830F900F900F900F9081
S1130DF00F90DF91CF911F910F91FF90EF90DF90B3
S1130E00CF90BF90AF909F908F907F906F905F90A6
S1130E104F903F902F900895991B79E004C0991F3B
S1130E20961708F0961B881F7A95C9F78095089540
S1130E30052E97FB1EF400940E942F0757FD07D040
S1130E400E946E0807FC03D04EF40C942F075095B3
S1130E504095309521953F4F4F4F5F4F08959095A2
S1130E608095709561957F4F8F4F9F4F08950E9495
S1130E709008B7FF0895821B930B0895DF93CF93D7
S1130E801F930F939A9DF02D219FF00D8B9DF00DD4
S1130E908A9DE02DF10D039FF00D029FE00DF11DE1
S1130EA04E9DE00DF11D5E9DF00D4F9DF00D7F9365
S1130EB06F93BF92AF925F934F93D5010E949008B6
S1130EC08B01AC01D7010E949008EB01E80FF91FD8
S1130ED0D6010E948E072F913F91D6010E9490085F
S1130EE0C60FD71FE81FF91FAF91BF910E948E074D
S1130EF02F913F910E949008C60FD71FE81FF91F3A
S1130F00D6010E949008E60FF71F9801BE01CF0199
S1130F1011240F911F91CF91DF9108950E949008A1
S1130F20460F571FC81FD91F08F4319608956894B7
S1130F3001C0E894F92FF12B12F00C94CB07A0E038
S1130F40B0E0E5EAF7E00C943D08092E059422F49C
S1130F500E942708112392F4F0E80F26FFEFE09493
S1130F60F09400951095B094C094D094A194BF0AC5
S1130F70CF0ADF0AEF0AFF0A0F0B1F0B0E94D607E6
S1130F8007FC0E942708CDB7DEB7ECE00C945908A3
S1130F90689401C0E8948F929F92CF93DF930E944C
S1130FA0D607DF91CF919F908F900895882499243C
S1130FB0F401E401B0E49F93AA279A158B049C04DE
S1130FC0ED05FE05CF05D007A10798F4AD2FDC2F62
S1130FD0CF2FFE2FE92D982C892E982F872F762F2F
S1130FE0652F542F432F322F2227B85031F7BF914A
S1130FF027C01B2EBF91BB27220F331F441F551F31
S1131000661F771F881F991F881C991CEE1FFF1FDE
S1131010CC1FDD1FAA1FBB1F8A149B04EC05FD0512
S1131020CE05DF05A007B10748F08A189B08EC0934
S1131030FD09CE09DF09A00BB10B21601A94E1F67A
S11310402EF49401AF01BE01CD01000C089560950A
S113105070958095909530954095509521953F4F8A
S11310604F4F5F4F6F4F7F4F8F4F9F4F08952F927A
S11310703F924F925F926F927F928F929F92AF9224
S1131080BF92CF92DF92EF92FF920F931F93CF9371
S1131090DF93CDB7DEB7CA1BDB0B0FB6F894DEBF08
S11310A00FBECDBF09942A88398848885F846E842E
S11310B07D848C849B84AA84B984C884DF80EE8078
S11310C0FD800C811B81AA81B981CE0FD11D0FB681
S11310D0F894DEBF0FBECDBFED010895A1E21A2E34
S11310E0AA1BBB1BFD010DC0AA1FBB1FEE1FFF1FC8
S11310F0A217B307E407F50720F0A21BB30BE40B18
S1131100F50B661F771F881F991F1A9469F760955E
S11311107095809590959B01AC01BD01CF01089518
S1131120A29FB001B39FC001A39F700D811D112424
S1131130911DB29F700D811D1124911D0895AEE083
S1131140B0E0E5EAF8E00C9445080D891E8986E0D4
S11311508C831A8309838FEF9FE79E838D83AE016F
S1131160475E5F4F6F89788DCE0101960E94C1085A
S1131170EF81F885E00FF11F10822E96E4E00C94C5
S11311806108ABE0B0E0E7ECF8E00C9437086C01E0
S11311907B018A01FC0117821682838181FFCCC105
S11311A0CE0101963C01F6019381F70193FD8591EF
S11311B093FF81917F01882309F4BAC1853239F400
S11311C093FD859193FF81917F01853229F4B601C6
S11311D090E00E94B80AE7CF912C212C312CFFE13A
S11311E0F315D8F08B3279F038F4803279F0833209
S11311F0A1F4232D20611DC08D3261F0803369F488
S1131200232D216016C0832D8260382EE32DE460E7
S11312103E2E2AC0F32DF8601DC037FC2DC020EDF2
S1131220280F2A3040F08E32B9F436FC81C1232DC8
S11312302064322E19C036FE06C08AE0989E200D26
S11312401124922E11C0EAE02E9E200D1124222E8C
S1131250F32DF0623F2E08C08C3621F4832D806874
S1131260382E02C0883641F4F70193FD859193FF2F
S113127081917F018111B3CF982F9F7D9554933035
S113128028F40C5F1F4F9FE399830DC0833631F020
S1131290833771F0833509F059C021C0F80180818A
S11312A089830E5F1F4F88248394912C530113C0AC
S11312B02801F2E04F0E511CF801A080B18036FEE7
S11312C003C0692D70E002C06FEF7FEFC5010E947B
S11312D0AD0A4C018201F32DFF773F2E16C0280181
S11312E022E0420E511CF801A080B18036FE03C0FA
S11312F0692D70E002C06FEF7FEFC5010E94A20A62
S11313004C01F32DF0683F2E820133FC1BC0822D6B
S113131090E088169906B0F4B60180E290E00E944D
S1131320B80A2A94F4CFF50137FC859137FE8191F0
S11313305F01B60190E00E94B80A21102A9421E0CE
S1131340821A91088114910471F7E8C0843611F06F
S1131350893641F5F80137FE07C0608171818281C9
S113136093810C5F1F4F08C060817181072E000CB0
S1131370880B990B0E5F1F4FF32DFF763F2E97FFBF
S113138009C090958095709561957F4F8F4F9F4FC1
S1131390F0683F2E2AE030E0A3010E94F40A882E70
S11313A0861845C0853731F4232D2F7EB22E2AE0CE
S11313B030E025C0932D997FB92E8F36C1F018F4F3
S11313C0883579F0B5C0803719F0883721F0B0C07E
S11313D0E92FE061BE2EB4FE0DC0FB2DF460BF2EDC
S11313E009C034FE0AC0292F2660B22E06C028E0A8
S11313F030E005C020E130E002C020E132E0F80135
S1131400B7FE07C060817181828193810C5F1F4F99
S113141006C06081718180E090E00E5F1F4FA301E0
S11314200E94F40A882E8618FB2DFF773F2E36FE85
S11314300DC0232D2E7FA22E891458F434FE0BC028
S113144032FC09C0832D8E7EA82E05C0B82CA32C97
S113145003C0B82C01C0B92CA4FE0FC0FE01E80DD6
S1131460F11D8081803321F49A2D997EA92E09C023
S1131470A2FE06C0B394B39404C08A2D867809F002
S1131480B394A3FC11C0A0FE06C0B21488F4280CC7
S1131490922C9B180EC0B21460F4B60180E290E066
S11314A00E94B80AB394F7CFB21418F42B1802C0F0
S11314B0982C212CA4FE10C0B60180E390E00E9479
S11314C0B80AA2FE17C0A1FC03C088E790E002C0DE
S11314D088E590E0B6010CC08A2D867859F0A1FE0B
S11314E002C08BE201C080E2A7FC8DE2B60190E06D
S11314F00E94B80A891438F4B60180E390E00E948F
S1131500B80A9A94F7CF8A94F301E80DF11D80810B
S1131510B60190E00E94B80A8110F5CF222009F4A8
S113152042CEB60180E290E00E94B80A2A94F6CF37
S1131530F6018681978102C08FEF9FEF2B96E2E13F
S11315400C945308FC010590615070400110D8F7C9
S1131550809590958E0F9F1F0895FC0161507040F7
S113156001900110D8F7809590958E0F9F1F0895D4
S11315700F931F93CF93DF93FB01238121FD03C0BE
S11315808FEF9FEF2CC022FF16C046815781248124
S113159035814217530744F4A081B1819D012F5F27
S11315A03F4F318320838C93268137812F5F3F4FB8
S11315B03783268314C08B01EC01FB010084F18581
S11315C0E02D0995892BE1F6D80116968D919C9111
S11315D01797019617969C938E931697CE01DF91D9
S11315E0CF911F910F910895FA01AA27283051F144
S11315F0203181F1E8946F936E7F6E5F7F4F8F4F40
S11316009F4FAF4FB1E03ED0B4E03CD0670F781F9E
S1131610891F9A1FA11D680F791F8A1F911DA11D83
S11316206A0F711D811D911DA11D20D009F46894BC
S11316303F912AE0269F11243019305D3193DEF664
S1131640CF010895462F4770405D4193B3E00FD01A
S1131650C9F7F6CF462F4F70405D4A3318F0495D05
S113166031FD4052419302D0A9F7EACFB4E0A695E8
S11316709795879577956795BA95C9F7009761050A
S1131680710508959B01AC010A2E06945795479560
S113169037952795BA95C9F7620F731F841F951F55
S10B16A0A01D0895F894FFCF8A
S11316A825642C2564206D560025642C253032646D
S11316B8206D560025642C25303364206D56002592
S11316C8642C2530336420560025642C253034647A
S11316D820560025642C253035642056005A616B49
S11316E872657320323030206D56005A616B726512
S11316F87320322056005A616B7265732032302091
S10F1708560025642C2530326420560065
S9030000FC
